:0A0000000C942A000C9400000C94EC
:10000A0000000C9400000C9400000C9400000C9466
:10001A0000000C9400000C9400000C9400000C9456
:10002A0000000C9400000C9400000C9400000C9446
:10003A0000000C9400000C9400000C9400000C9436
:10004A0000000C9400000C940000F894EE27ECBB1E
:10005A00F1E0FBBFEBBFE5BF8DE0A2E0BB27ED936C
:10006A008A95E9F780E098E0A0E6ED930197E9F731
:10007A00EFE5EDBFE8E0EEBFC0E6D2E00C94450044
:10008A00E0E3E1BBE0E0E2BBE9E0E3BFE0E0E2BFDE
:10009A00E2E3ECBFE8B7E1FFFDCFE0E0E3BFE2B3A4
:1000AA00A0E1EA27E2BB81E28A95F1F7E2B3A0E296
:1000BA00EA27E2BBE0E0E2BFE2E0E8BFE5CFFFCF3C
:00000001FF
